{
  "contractName": "Chainbooks",
  "abi": [
    {
      "constant": false,
      "inputs": [
        {
          "internalType": "string",
          "name": "ipfs",
          "type": "string"
        },
        {
          "internalType": "address",
          "name": "author",
          "type": "address"
        }
      ],
      "name": "addBook",
      "outputs": [],
      "payable": false,
      "stateMutability": "nonpayable",
      "type": "function"
    },
    {
      "constant": true,
      "inputs": [
        {
          "internalType": "uint256",
          "name": "id",
          "type": "uint256"
        }
      ],
      "name": "getAuthor",
      "outputs": [
        {
          "internalType": "address",
          "name": "author",
          "type": "address"
        }
      ],
      "payable": false,
      "stateMutability": "view",
      "type": "function"
    },
    {
      "constant": true,
      "inputs": [
        {
          "internalType": "address",
          "name": "author",
          "type": "address"
        }
      ],
      "name": "getIpfs",
      "outputs": [
        {
          "internalType": "string[]",
          "name": "",
          "type": "string[]"
        }
      ],
      "payable": false,
      "stateMutability": "view",
      "type": "function"
    }
  ],
  "bytecode": "0x60806040526000805534801561001457600080fd5b50610791806100246000396000f3fe608060405234801561001057600080fd5b50600436106100415760003560e01c80639e2b848814610046578063d22591c814610076578063f25447bf14610092575b600080fd5b610060600480360361005b91908101906104ac565b6100c2565b60405161006d91906105a6565b60405180910390f35b610090600480360361008b9190810190610458565b6100ff565b005b6100ac60048036036100a7919081019061042f565b6101e1565b6040516100b991906105c1565b60405180910390f35b60006001600083815260200190815260200160002060009054906101000a900473ffffffffffffffffffffffffffffffffffffffff169050919050565b80600160008054815260200190815260200160002060006101000a81548173ffffffffffffffffffffffffffffffffffffffff021916908373ffffffffffffffffffffffffffffffffffffffff160217905550600260008273ffffffffffffffffffffffffffffffffffffffff1673ffffffffffffffffffffffffffffffffffffffff1681526020019081526020016000206000018290806001815401808255809150509060018203906000526020600020016000909192909190915090805190602001906101cf92919061030c565b50506001600054016000819055505050565b6060600260008373ffffffffffffffffffffffffffffffffffffffff1673ffffffffffffffffffffffffffffffffffffffff168152602001908152602001600020600001805480602002602001604051908101604052809291908181526020016000905b82821015610301578382906000526020600020018054600181600116156101000203166002900480601f0160208091040260200160405190810160405280929190818152602001828054600181600116156101000203166002900480156102ed5780601f106102c2576101008083540402835291602001916102ed565b820191906000526020600020905b8154815290600101906020018083116102d057829003601f168201915b505050505081526020019060010190610245565b505050509050919050565b828054600181600116156101000203166002900490600052602060002090601f016020900481019282601f1061034d57805160ff191683800117855561037b565b8280016001018555821561037b579182015b8281111561037a57825182559160200191906001019061035f565b5b509050610388919061038c565b5090565b6103ae91905b808211156103aa576000816000905550600101610392565b5090565b90565b6000813590506103c081610720565b92915050565b600082601f8301126103d757600080fd5b81356103ea6103e582610610565b6105e3565b9150808252602083016020830185838301111561040657600080fd5b6104118382846106cd565b50505092915050565b60008135905061042981610737565b92915050565b60006020828403121561044157600080fd5b600061044f848285016103b1565b91505092915050565b6000806040838503121561046b57600080fd5b600083013567ffffffffffffffff81111561048557600080fd5b610491858286016103c6565b92505060206104a2858286016103b1565b9150509250929050565b6000602082840312156104be57600080fd5b60006104cc8482850161041a565b91505092915050565b60006104e1838361056d565b905092915050565b6104f281610691565b82525050565b60006105038261064c565b61050d818561066f565b93508360208202850161051f8561063c565b8060005b8581101561055b578484038952815161053c85826104d5565b945061054783610662565b925060208a01995050600181019050610523565b50829750879550505050505092915050565b600061057882610657565b6105828185610680565b93506105928185602086016106dc565b61059b8161070f565b840191505092915050565b60006020820190506105bb60008301846104e9565b92915050565b600060208201905081810360008301526105db81846104f8565b905092915050565b6000604051905081810181811067ffffffffffffffff8211171561060657600080fd5b8060405250919050565b600067ffffffffffffffff82111561062757600080fd5b601f19601f8301169050602081019050919050565b6000819050602082019050919050565b600081519050919050565b600081519050919050565b6000602082019050919050565b600082825260208201905092915050565b600082825260208201905092915050565b600061069c826106a3565b9050919050565b600073ffffffffffffffffffffffffffffffffffffffff82169050919050565b6000819050919050565b82818337600083830152505050565b60005b838110156106fa5780820151818401526020810190506106df565b83811115610709576000848401525b50505050565b6000601f19601f8301169050919050565b61072981610691565b811461073457600080fd5b50565b610740816106c3565b811461074b57600080fd5b5056fea365627a7a723158209cfa557582da92909425cc0b1eadba12fc4ffa4f76bcef201b8b6942b7c2e7516c6578706572696d656e74616cf564736f6c63430005100040",
  "source": "pragma solidity 0.5.16;\r\npragma experimental ABIEncoderV2;\r\n\r\ncontract Chainbooks {\r\n  \r\n  uint bookNumber = 0;\r\n  \r\n   struct Ipfs {\r\n    string[] allIpfs;\r\n  }\r\n\r\n  mapping(uint => address) bookId;\r\n  mapping(address => Ipfs) Owner;\r\n  \r\n\r\n  function addBook(string memory ipfs, address author) public {\r\n    bookId[bookNumber] = author;\r\n    Owner[author].allIpfs.push(ipfs);\r\n    bookNumber = bookNumber + 1;\r\n  }\r\n  \r\n    function getAuthor(uint id) public view returns (address author) {\r\n     return bookId[id];\r\n     \r\n   }\r\n   \r\n   function getIpfs(address author) public view returns (string[] memory) {\r\n       return Owner[author].allIpfs;\r\n   }\r\n}\r\n",
  "sourcePath": "D:\\Node\\Codebase\\ChainBlocks\\contracts\\Chainbooks.sol",
  "compiler": {
    "name": "solc",
    "version": "0.5.16+commit.9c3226ce.Emscripten.clang"
  },
  "schemaVersion": "3.2.0",
  "updatedAt": "2020-05-27T17:09:40.759Z",
  "networkType": "ethereum",
  "devdoc": {
    "methods": {}
  },
  "userdoc": {
    "methods": {}
  }
}