{
  "contractName": "User",
  "abi": [
    {
      "constant": false,
      "inputs": [
        {
          "internalType": "string",
          "name": "x",
          "type": "string"
        }
      ],
      "name": "set",
      "outputs": [],
      "payable": false,
      "stateMutability": "nonpayable",
      "type": "function"
    },
    {
      "constant": true,
      "inputs": [],
      "name": "get",
      "outputs": [
        {
          "internalType": "string[]",
          "name": "",
          "type": "string[]"
        }
      ],
      "payable": false,
      "stateMutability": "view",
      "type": "function"
    }
  ],
  "bytecode": "0x608060405234801561001057600080fd5b50610580806100206000396000f3fe608060405234801561001057600080fd5b50600436106100365760003560e01c80634ed3885e1461003b5780636d4ce63c14610057575b600080fd5b61005560048036036100509190810190610317565b610075565b005b61005f6100f6565b60405161006c919061041a565b60405180910390f35b6000803373ffffffffffffffffffffffffffffffffffffffff1673ffffffffffffffffffffffffffffffffffffffff1681526020019081526020016000206000018190806001815401808255809150509060018203906000526020600020016000909192909190915090805190602001906100f192919061021e565b505050565b60606000803373ffffffffffffffffffffffffffffffffffffffff1673ffffffffffffffffffffffffffffffffffffffff168152602001908152602001600020600001805480602002602001604051908101604052809291908181526020016000905b82821015610215578382906000526020600020018054600181600116156101000203166002900480601f0160208091040260200160405190810160405280929190818152602001828054600181600116156101000203166002900480156102015780601f106101d657610100808354040283529160200191610201565b820191906000526020600020905b8154815290600101906020018083116101e457829003601f168201915b505050505081526020019060010190610159565b50505050905090565b828054600181600116156101000203166002900490600052602060002090601f016020900481019282601f1061025f57805160ff191683800117855561028d565b8280016001018555821561028d579182015b8281111561028c578251825591602001919060010190610271565b5b50905061029a919061029e565b5090565b6102c091905b808211156102bc5760008160009055506001016102a4565b5090565b90565b600082601f8301126102d457600080fd5b81356102e76102e282610469565b61043c565b9150808252602083016020830185838301111561030357600080fd5b61030e8382846104ea565b50505092915050565b60006020828403121561032957600080fd5b600082013567ffffffffffffffff81111561034357600080fd5b61034f848285016102c3565b91505092915050565b600061036483836103e1565b905092915050565b6000610377826104a5565b61038181856104c8565b93508360208202850161039385610495565b8060005b858110156103cf57848403895281516103b08582610358565b94506103bb836104bb565b925060208a01995050600181019050610397565b50829750879550505050505092915050565b60006103ec826104b0565b6103f681856104d9565b93506104068185602086016104f9565b61040f8161052c565b840191505092915050565b60006020820190508181036000830152610434818461036c565b905092915050565b6000604051905081810181811067ffffffffffffffff8211171561045f57600080fd5b8060405250919050565b600067ffffffffffffffff82111561048057600080fd5b601f19601f8301169050602081019050919050565b6000819050602082019050919050565b600081519050919050565b600081519050919050565b6000602082019050919050565b600082825260208201905092915050565b600082825260208201905092915050565b82818337600083830152505050565b60005b838110156105175780820151818401526020810190506104fc565b83811115610526576000848401525b50505050565b6000601f19601f830116905091905056fea365627a7a723158206fbb7654cabca467c3ad8a087b52bb84e180ab41f3e458f47e1d9221878e3b7c6c6578706572696d656e74616cf564736f6c63430005100040",
  "source": "pragma solidity 0.5.16;\r\npragma experimental ABIEncoderV2;\r\n\r\ncontract User {\r\n  \r\n   struct MyUser {\r\n    string[] ipfs;\r\n  }\r\n\r\n  mapping(address => MyUser) myusers;\r\n\r\n  function set(string memory x) public {\r\n    myusers[msg.sender].ipfs.push(x);\r\n  }\r\n  \r\n    function get() public view returns (string[] memory) {\r\n    \r\n     return myusers[msg.sender].ipfs;\r\n   }\r\n}\r\n",
  "sourcePath": "D:\\Node\\Codebase\\ChainBlocks\\contracts\\User.sol",
  "compiler": {
    "name": "solc",
    "version": "0.5.16+commit.9c3226ce.Emscripten.clang"
  },
  "schemaVersion": "3.2.0",
  "updatedAt": "2020-05-27T17:09:40.368Z",
  "networkType": "ethereum",
  "devdoc": {
    "methods": {}
  },
  "userdoc": {
    "methods": {}
  }
}